:100000000C9434000C9451000C9451000C94510049
:100010000C9451000C9451000C9451000C9451001C
:100020000C9451000C9451000C9451000C9451000C
:100030000C9451000C9451000C9451000C945100FC
:100040000C9475000C9451000C9451000C945100C8
:100050000C9451000C9451000C9451000C945100DC
:100060000C9451000C94510011241FBECFEFD8E026
:10007000DEBFCDBF11E0A0E0B1E0E4ECF2E002C0F1
:1000800005900D92A030B107D9F711E0A0E0B1E0E2
:1000900001C01D92A930B107E1F70E9451010C94F3
:1000A00060010C94000081E284B915B88091810050
:1000B00081608093810021E280918400909185008D
:1000C000895B984038F0109285001092840085B1C9
:1000D000822785B985B1822785B9EECF68EE73E0B6
:1000E00080E090E00E94BD0008951F920F920FB62D
:1000F0000F9211242F933F938F939F93AF93BF93AE
:100100008091040190910501A0910601B091070131
:10011000309108010196A11DB11D232F2D5F2D37B0
:1001200020F02D570196A11DB11D20930801809349
:10013000040190930501A0930601B09307018091FB
:10014000000190910101A0910201B091030101967B
:10015000A11DB11D8093000190930101A0930201A4
:10016000B0930301BF91AF919F918F913F912F91D8
:100170000F900FBE0F901F9018959B01AC017FB799
:10018000F8948091000190910101A0910201B09139
:10019000030166B5A89B05C06F3F19F00196A11D2C
:1001A000B11D7FBFBA2FA92F982F8827860F911DC9
:1001B000A11DB11D62E0880F991FAA1FBB1F6A9580
:1001C000D1F7BC012DC0FFB7F89480910001909148
:1001D0000101A0910201B0910301E6B5A89B05C001
:1001E000EF3F19F00196A11DB11DFFBFBA2FA92F36
:1001F000982F88278E0F911DA11DB11DE2E0880F59
:10020000991FAA1FBB1FEA95D1F7861B970B885E23
:100210009340C8F2215030404040504068517C4FDC
:10022000211531054105510571F60895789484B57D
:10023000826084BD84B5816084BD85B5826085BDE2
:1002400085B5816085BDEEE6F0E0808181608083C8
:10025000E1E8F0E0108280818260808380818160AB
:100260008083E0E8F0E0808181608083E1EBF0E072
:10027000808184608083E0EBF0E080818160808316
:10028000EAE7F0E0808184608083808182608083FF
:100290008081816080838081806880831092C1002A
:1002A0000895CF93DF930E9416010E945300C0E08F
:1002B000D0E00E946E002097E1F30E940000F9CF89
:0402C000F894FFCFE0
:00000001FF
